{
  "contractName": "EtherReceiver",
  "abi": [
    {
      "inputs": [],
      "stateMutability": "nonpayable",
      "type": "constructor"
    },
    {
      "inputs": [],
      "name": "owner",
      "outputs": [
        {
          "internalType": "address",
          "name": "",
          "type": "address"
        }
      ],
      "stateMutability": "view",
      "type": "function",
      "constant": true
    },
    {
      "stateMutability": "payable",
      "type": "receive",
      "payable": true
    },
    {
      "inputs": [],
      "name": "checkBalance",
      "outputs": [
        {
          "internalType": "uint256",
          "name": "",
          "type": "uint256"
        }
      ],
      "stateMutability": "view",
      "type": "function",
      "constant": true
    },
    {
      "inputs": [],
      "name": "withdraw",
      "outputs": [],
      "stateMutability": "nonpayable",
      "type": "function"
    }
  ],
  "bytecode": "0x608060405234801561001057600080fd5b50336000806101000a81548173ffffffffffffffffffffffffffffffffffffffff021916908373ffffffffffffffffffffffffffffffffffffffff16021790555061030b806100606000396000f3fe6080604052600436106100385760003560e01c80633ccfd60b146100445780638da5cb5b1461005b578063c71daccb146100865761003f565b3661003f57005b600080fd5b34801561005057600080fd5b506100596100b1565b005b34801561006757600080fd5b506100706101a8565b60405161007d9190610232565b60405180910390f35b34801561009257600080fd5b5061009b6101cc565b6040516100a8919061026d565b60405180910390f35b60008054906101000a900473ffffffffffffffffffffffffffffffffffffffff1673ffffffffffffffffffffffffffffffffffffffff163373ffffffffffffffffffffffffffffffffffffffff161461013f576040517f08c379a00000000000000000000000000000000000000000000000000000000081526004016101369061024d565b60405180910390fd5b60008054906101000a900473ffffffffffffffffffffffffffffffffffffffff1673ffffffffffffffffffffffffffffffffffffffff166108fc479081150290604051600060405180830381858888f193505050501580156101a5573d6000803e3d6000fd5b50565b60008054906101000a900473ffffffffffffffffffffffffffffffffffffffff1681565b600047905090565b6101dd81610299565b82525050565b60006101f0601b83610288565b91507f4f6e6c7920746865206f776e65722063616e20776974686472617700000000006000830152602082019050919050565b61022c816102cb565b82525050565b600060208201905061024760008301846101d4565b92915050565b60006020820190508181036000830152610266816101e3565b9050919050565b60006020820190506102826000830184610223565b92915050565b600082825260208201905092915050565b60006102a4826102ab565b9050919050565b600073ffffffffffffffffffffffffffffffffffffffff82169050919050565b600081905091905056fea2646970667358221220294efb0465a3dad550c5cfee2dfc9bdf7b05684004457072f9142228cf44eb5b64736f6c63430008000033",
  "immutableReferences": {},
  "source": "// SPDX-License-Identifier: MIT\r\npragma solidity ^0.8.0;\r\n\r\ncontract EtherReceiver {\r\n    address public owner;\r\n\r\n    constructor() {\r\n        owner = msg.sender;\r\n    }\r\n\r\n    // Function to receive Ether\r\n    receive() external payable {}\r\n\r\n    // Function to check contract balance\r\n    function checkBalance() public view returns (uint) {\r\n        return address(this).balance;\r\n    }\r\n\r\n    // Function to withdraw Ether by the owner\r\n    function withdraw() public {\r\n        require(msg.sender == owner, \"Only the owner can withdraw\");\r\n        payable(owner).transfer(address(this).balance);\r\n    }\r\n}",
  "sourcePath": "C:\\Users\\user\\Desktop\\Blockchain\\EtherReceiver\\contracts\\EtherReceiver.sol",
  "compiler": {
    "name": "solc",
    "version": "0.8.0+commit.c7dfd78e.Emscripten.clang"
  },
  "schemaVersion": "3.4.16",
  "updatedAt": "2024-12-29T19:04:49.420Z",
  "networkType": "ethereum",
  "devdoc": {
    "kind": "dev",
    "methods": {},
    "version": 1
  },
  "userdoc": {
    "kind": "user",
    "methods": {},
    "version": 1
  }
}